:100000000C9460030C947D030C947D030C947D038D
:100010000C947D030C947D030C947D030C947D0360
:100020000C947D030C947D030C947D030C947D0350
:100030000C947D030C947D030C947D030C947D0340
:100040000C947D030C947D030C947D030C947D0330
:100050000C947D030C947D030C947D030C947D0320
:100060000C947D030C947D030C947D030C947D0310
:1000700000000000005C00000C000C007C287C28C4
:1000800058DC68002410480028542840000C000068
:10009000007884008478000054385400107C1000EC
:1000A00080400000101010000040000060100C00A4
:1000B00038543800487C40004864580044542C00B0
:1000C0001C107C005C5424003854240064140C0080
:1000D00068542C0048543800004800008048000054
:1000E0001028440028282800442810000454080040
:1000F00038445C00781478007C5428003844280088
:100100007C4438007C5444007C140400384474005F
:100110007C107C00447C440020403C007C106C003F
:100120007C4040007C187C0078103C00384438004B
:100130007C1408003844B8007C146800485424003B
:10014000047C04007C407C003C603C007C307C00F3
:100150006C106C000C700C0064544C00007C44006B
:100160000C106000447C00000804080080808000BF
:1001700000040800304878007C48300030484800CF
:1001800030487C00306850001078140090A8780047
:100190007C08700050744000808074007C106800FF
:1001A000447C4000781078007808700030483000B7
:1001B000F82810003048F80078100800505828003F
:1001C000083C4800384078003840380078207800F3
:1001D0004830480098A0780048685800107884009B
:1001E000007C00008478100008040804000000006F
:1001F0000000005F00000007000700147F147F1458
:10020000242A7F2A1223130864623649552250009B
:1002100005030000001C2241000041221C00082AA6
:100220001C2A0808083E080800503000000808088A
:100230000808006060000020100804023E51494593
:100240003E00427F400042615149462141454B31C9
:100250001814127F1027454545393C4A4949300159
:10026000710905033649494936064949291E0036B0
:100270003600000056360000000814224114141401
:10028000141441221408000201510906324979412F
:100290003E7E1111117E7F494949363E414141223E
:1002A0007F4141221C7F494949417F090901013EA3
:1002B000414151327F0808087F00417F41002040C2
:1002C000413F017F081422417F404040407F0204AB
:1002D000027F7F0408107F3E4141413E7F090909AA
:1002E000063E4151215E7F09192946464949493157
:1002F00001017F01013F4040403F1F2040201F7F00
:100300002018207F631408146303047804036151E8
:1003100049454300007F4141020408102041417FCC
:100320000000040201020440404040400001020479
:100330000020545454787F4844443838444444207E
:10034000384444487F3854545418087E0901020840
:100350001454543C7F0804047800447D400020403D
:10036000443D00007F10284400417F40007C041879
:1003700004787C0804047838444444387C14141409
:1003800008081414187C7C080404084854545420A9
:10039000043F4440203C4040207C1C2040201C3C2A
:1003A0004030403C44281028440C5050503C446499
:1003B000544C44000836410000007F0000004136E4
:1003C000080002010302010000000000000000001C
:1003D000065F5F0600000000070700070700001423
:1003E0007F7F147F7F1400242E6B6B3A120000462F
:1003F0006630180C666200307A4F5D377A48000428
:1004000007030000000000001C3E634100000000E4
:1004100041633E1C000000082A3E1C1C3E2A0808BE
:10042000083E3E0808000000A0E060000000000850
:100430000808080808000000006060000000006074
:1004400030180C060301003E7F594D7F3E000042EC
:10045000427F7F40400000627359496F660000226E
:100460006349497F360000181C16137F7F10002750
:100470006745457D3900003C7E4B497930000003DB
:100480006371190F070000367F49497F3600000667
:100490004F49693F1E000000006C6C000000000026
:1004A000A0EC6C00000000081C3663410000001442
:1004B00014141414140000004163361C08000002D8
:1004C0000351590F0600003E7F415D5D1F1E007CF9
:1004D0007E13137E7C0000417F7F49497F36001CDC
:1004E0003E634141632200417F7F41637F1C0041A5
:1004F0007F7F495D416300417F7F491D0103001CEF
:100500003E6341517372007F7F08087F7F000000C7
:10051000417F7F41000000307040417F3F0100413A
:100520007F7F081C776300417F7F41406070007FC0
:100530007F060C067F7F007F7F060C187F7F001CE4
:100540003E6341633E1C00417F7F49090F06001E48
:100550003F21717F5E0000417F7F19396F46002681
:10056000674D597B32000003417F7F410300007FCC
:100570007F40407F7F00001F3F60603F1F00007F83
:100580007F3018307F7F0063771C081C776300077B
:100590004F78784F0700006773594D47637100002B
:1005A0007F7F41410000000103060C18306000000D
:1005B00041417F7F000000080C0603060C08008004
:1005C000808080808080800000030704000000207D
:1005D0007454543C784000413F7F44447C38003898
:1005E0007C44446C280000307848493F7F40003804
:1005F0007C54545C180000487E7F49030200009838
:10060000BCA4A4F87C0400417F7F08047C7800002F
:10061000447D7D4000000040C484FD7D0000004119
:100620007F7F10386C440000417F7F400000007CD9
:100630007C0C180C7C78007C7C04047C78000038EE
:100640007C44447C38000084FCF8A4243C18001846
:100650003C24A4F8FC8400447C78441C1800004826
:100660005C54547424000000043E7F442400003C89
:100670007C40403C7C40001C3C60603C1C00003CDA
:100680007C6030607C3C00446C3810386C44009CCA
:10069000BCA0A0FC7C00004C64745C4C64000008AE
:1006A000083E7741410000000000777700000041DC
:1006B00041773E0808000002030103020301000025
:1006C00011241FBECFEFD4E0DEBFCDBF14E0A0E009
:1006D000B1E0E0E2FCE102C005900D92A230B1076A
:1006E000D9F724E0A2E0B4E001C01D92AC30B2071B
:1006F000E1F70E948E030C940E0E0C94000090BD46
:1007000089B988E18AB98EE880BD08955D9BFECFE6
:100710008CB908955F9BFECF8CB108958FE190E076
:100720000E947F036AE873E086E893E00E942F0A44
:100730000E9492041F928F938AE091E09F938F937F
:100740000E947A0A0E9425051F928F938CE191E006
:100750009F938F930E947A0A0E94E4051F928F93C1
:100760008EE291E09F938F930E947A0A0E946A071B
:100770001F928F9380E491E09F938F930E947A0A57
:100780000E948E071F928F9382E591E09F938F9333
:100790000E947A0A8AE20E9480071F928F930F2E8E
:1007A000F4E6EF2EF1E0FF2EF02DFF92EF920E9483
:1007B0007A0A89E20E9480071F928F930FE611E068
:1007C0001F930F930E947A0A88E20E9480071F926B
:1007D0008F93CAE7D1E0DF93CF930E947A0AEDB7F7
:1007E000FEB7B0960FB6F894FEBF0FBEEDBF0E94E5
:1007F00028060E94B2070E94EF070E9401080E948B
:1008000007088AE20E9480071F928F93FF92EF925F
:100810000E947A0A89E20E9480071F928F931F9399
:100820000F930E947A0A88E20E9480071F928F939A
:10083000DF93CF930E947A0A0E942B088CE090E00D
:100840000E94B2088C0180E3F80180831182128239
:100850008BE78483858386838783808781878287EC
:1008600083878CE090E00E94B208EC0180E68883E8
:10087000F80111821A821C821D821E821F82188634
:1008800019861A861B868DB79EB70C960FB6F894FC
:100890009EBF0FBE8DBF05E811E0CE010E946E081D
:1008A000BB85AA85F985E8857F816E815D814C8154
:1008B0003B812A81998188811F92BF931F92AF93B8
:1008C0001F92FF931F92EF931F927F931F926F933C
:1008D0001F925F931F924F931F923F931F922F93EC
:1008E0001F929F931F928F931F930F930E947A0AD8
:1008F00087EB91E00E94900A8DE691E00E94900AB9
:100900009FEFEFEFFDE19150E040F040E1F700C0D4
:1009100000008DB79EB74A960FB6F8949EBF0FBEE3
:100920008DBFBBCF85B7806885BF80B7886080BF2B
:1009300080E00895FB01F05F80830895905FFC01E3
:1009400080810895CF92DF92EF92FF920F931F93D1
:10095000CF93DF9384EC91E00E94900A0E941F0ADB
:100960007C010E94240AC12CD12C00E010E0CAEDC9
:10097000D1E00E941F0AF601F85E808320812817CB
:10098000A9F099279F938F931F922F93DF92CF9275
:10099000DF93CF930E947A0A0F5F1F4F8DB79EB7E8
:1009A00008960FB6F8949EBF0FBE8DBF9FEFC91A71
:1009B000D90AC11488E0D806E1F6C7010E94240ACA
:1009C000C0E0D0E0E12CF12C0F2EF3E1CF2EF2E0CD
:1009D000DF2EF02D0E941F0AFE01F85E20812817ED
:1009E000B1F099279F938F931F922F93DF93CF930B
:1009F000DF92CF920E947A0A9FEFE91AF90A8DB727
:100A00009EB708960FB6F8949EBF0FBE8DBF219675
:100A1000C11598E0D907F1F6FF92EF921F930F935B
:100A200080E592E09F938F930E947A0A0F900F9037
:100A30000F900F900F900F90DF91CF911F910F911A
:100A4000FF90EF90DF90CF9008958D9A8C98B89892
:100A5000B9988FB582608FBD8FB58E7F8FBD8FB5F2
:100A600080688FBD8FB58F7B8FBD8EB580618EBD49
:100A70008EB588608EBD8EB581608EBD8EB58D7F42
:100A80008EBD8EB58B7F8EBD83E090E095BD84BD1D
:100A900081E090E09BBD8ABD80E00895CF93DF9315
:100AA000DC0110920014849BFECFFD019D012C5FA0
:100AB0003F4FC0E0D4E198819193E217F307D9F753
:100AC00086B3817014968C93149786B382701596B2
:100AD0008C93DF91CF9108950F931F93CF93DF9362
:100AE0008C01EB0189EA92E00E94900A0E948A033D
:100AF0002FE986E891E0215080409040E1F700C066
:100B000000008FED92E00E94900A0E948A03CE01BD
:100B10000E944E058881F8018083FFE926E881E084
:100B2000F15020408040E1F700C0000086E193E0F2
:100B30000E94900A0E948A03CE010E944E0588817D
:100B4000F8018183FFE926E881E0F15020408040F0
:100B5000E1F700C000008EE493E00E94900A0E943A
:100B60008A03CE010E944E058981F8018283FFE944
:100B700026E881E0F15020408040E1F700C000000D
:100B800084E893E00E94900A0E948A03CE010E94AA
:100B90004E058981F8018383FFE926E881E0F15061
:100BA00020408040E1F700C000008DEB93E00E9400
:100BB000900ADF91CF911F910F91089580930010BB
:100BC0000895809300120895E0E0F0E18EEA8083BA
:100BD00081EA80838AED808382E1808388EC808350
:100BE00088EA80838FE3808385ED808380E880833B
:100BF00081E8808380E5808389ED808381E2808342
:100C000080E2808382E080838BED808380E3808339
:100C10008DEA8083108284EA808386EA80838FEA6B
:100C2000808380E00895E0E0F0E1808382958F701A
:100C3000805F808308958055809300100895CF933E
:100C4000C62F0E941306C055C0930010CF9108957F
:100C500080E00E94130690EBA0E0B0E1E0E0F2E15A
:100C60009C9380E010828F5F8038E1F79F5F983B14
:100C7000B9F7089580558093001080E0E0E0F2E13C
:100C800010828F5F8038E1F70895082E000C990BD1
:100C90008097880F991F880F991F880F991FFC0153
:100CA000E953FC4F81539C4FA0E0B2E124912C9377
:100CB0003196E817F907D1F708951F93CF93DF9383
:100CC000EC0110E007C0FE01E80FF91F80810E94CF
:100CD00045061F5F812F90E0FE0101900020E9F79B
:100CE0003197EC1BFD0B8E179F0768F3DF91CF91B7
:100CF0001F910895082E000C990B8097FC01EE0FB0
:100D0000FF1FEE0FFF1FE80FF91FE451FE4F85E0B4
:100D1000A0E0B2E194919C93815031968111FACF79
:100D200008951F93CF93DF93EC0110E007C0FE01FD
:100D3000E80FF91F80810E947A061F5F812F90E0E3
:100D4000FE0101900020E9F73197EC1BFD0B8E1797
:100D50009F0768F3DF91CF911F91089524E08202ED
:100D6000C0011124FC01E051F04080E0A0E0B2E1BC
:100D700094919C938F5F31968430D1F708951F939F
:100D8000CF93DF93EC0110E007C0FE01E80FF91FDD
:100D900080810E94AE061F5F812F90E0FE010190CE
:100DA0000020E9F73197EC1BFD0B8E179F0768F3C6
:100DB000DF91CF911F9108950F931F93CF93DF93EE
:100DC000662389F0D62F082F192FC0E06C2F80E002
:100DD0000E941F06F801819191918F010E945D068A
:100DE000CF5FDC13F3CFDF91CF911F910F91089567
:100DF000EF92FF920F931F93CF937C01890166239B
:100E000009F45AC0FC0190E0C0E0A191B1912C918D
:100E10002E3309F4C92F9F5F6913F7CFF801808142
:100E2000853BD0F0CC23B9F1EC2FF0E0EE0FFF1FA3
:100E3000EE0DFF1D0190F081E02D80E28083C15016
:100E4000EC2FF0E0EE0FFF1FEE0DFF1D0190F08183
:100E5000E02D8EE380831FC08238E8F4C73011F4A0
:100E60001AC0C0E0EC2FF0E0EE0FFF1FEE0DFF1DEB
:100E70000190F081E02D80E28083CF5FEC2FF0E0E5
:100E8000EE0FFF1FEE0DFF1D0190F081E02D8EE3B0
:100E9000808301C0C0E0C7010E94DC0683ED90E3BF
:100EA0000197F1F700C00000F8018481813011F44E
:100EB0008C2F0AC08FEF08C0F9018081853B50F765
:100EC000823878F2C0E0E7CFCF911F910F91FF9069
:100ED000EF900895BD9ABF9A6C9A689A6D9880E0D9
:100EE00008958FB9779BFECF08958FEF0E94710709
:100EF0008FB10895C49880EC0E947107C49A089538
:100F0000CF93C82FC49883E00E9471078C2F0E9452
:100F100071070E947507C49ACF910895BC9A6E9A82
:100F20000E947A078EE00E948007807E803831F030
:100F300086ED93E00E94900A81E0089580E0089594
:100F4000CF93DF93D82FC62FC49882E00E947107F9
:100F50008D2F0E9471078C2F0E947107C49ADF9118
:100F6000CF91089563E08AE20E94A00769EA89E2CE
:100F70000E94A00766E888E20E94A0070895660F15
:100F80008068862B440F440F842B0E9471070895BC
:100F9000CF93C49880EA0E9471070E947507C82FFA
:100FA0008FEF0E947107C49A8C2FCF9108951F93E1
:100FB000CF93DF93182FD62FC42FC49885E00E94BB
:100FC0007107812F0E9471078D2F0E9471078C2F4E
:100FD0000E947107C49ADF91CF911F91089543E059
:100FE00063E080E30E94D70760E081E30E94A007EE
:100FF00060E082E30E94A00768E085E30E94A0070A
:10100000089540E660E680E60E94D70708956FEFF6
:1010100080E00E94A00760EE81E00E94A0076FEFD1
:1010200084E00E94A00760EE85E00E94A0076FEFB9
:1010300080E20E94A00760EE81E20E94A00708956E
:1010400040E460EE8FE30E94D70740E460EE8FE655
:101050000E94D707089540E060EE8FE30E94D70713
:1010600040E060EE8FE60E94D7070895CF93DF93AC
:10107000EC010E94EF076C8188818A5F0E94A007C3
:101080006D818881895F0E94A0076E818881885F59
:101090000E94A0076F818881875F0E94A0076885F2
:1010A0008881865F0E94A00769858881855F0E948C
:1010B000A0076A858881845F0E94A0076B8588816C
:1010C000835F0E94A00748E068E080E30E94D707A2
:1010D00081E80E947107DF91CF910895CF93DF934C
:1010E000EC010E94010888818F5F0E94800789833C
:1010F00088818E5F0E9480078A8388818B5F0E942F
:1011000080078B8388818A5F0E9480078C83888117
:10111000895F0E9480078D838881885F0E94800795
:101120008E838881875F0E9480078F838881865F96
:101130000E94800788878881855F0E948007898751
:101140008881845F0E9480078A878881835F0E94EC
:1011500080078B8740E061E08CE20E94D707DF9137
:10116000CF9108950F931F93CF93DF938230910512
:1011700010F482E090E0E0910404F091050420E096
:1011800030E0A0E0B0E0309719F140815181028158
:10119000138148175907C8F08417950769F4109709
:1011A00031F012960C93129713961C9327C000935C
:1011B00004041093050422C02115310519F04217CB
:1011C000530718F49A01BD01EF01DF01F801DBCFED
:1011D00021153105F9F0281B390B2430310580F435
:1011E0008A819B816115710521F0FB0193838283C4
:1011F00004C09093050480930404FE01329644C019
:10120000FE01E20FF31F819391932250310939833C
:1012100028833AC02091020430910304232B41F427
:1012200020910201309103013093030420930204C2
:1012300020910001309101012115310541F42DB7B4
:101240003EB74091040150910501241B350BE091FC
:101250000204F0910304E217F307A0F42E1B3F0BE6
:101260002817390778F0AC014E5F5F4F2417350718
:1012700048F04E0F5F1F5093030440930204819384
:10128000919302C0E0E0F0E0CF01DF91CF911F9198
:101290000F910895CF93DF93009709F481C0FC016B
:1012A000329713821282A0910404B0910504109722
:1012B00081F420813181820F931F209102043091AB
:1012C00003042817390751F5F0930304E09302044F
:1012D00067C0ED0120E030E0CE17DF0740F44A811F
:1012E0005B819E0141155105F1F0EA01F5CFD383F1
:1012F000C28340815181840F951FC817D90759F4C3
:1013000088819981840F951F0296918380838A81B9
:101310009B81938382832115310529F4F093050481
:10132000E09304043DC0E901FB83EA8349915991AC
:10133000C40FD51FEC17FD0761F480819181840FE4
:10134000951F0296E90199838883828193819B830B
:101350008A83E0E0F0E012968D919C9113970097BC
:1013600019F0FD01DC01F7CF8D919C9111979D0142
:101370002E5F3F4F820F931F209102043091030490
:101380002817390769F4309729F410920504109250
:10139000040402C013821282B0930304A0930204D7
:1013A000DF91CF9108958F929F92AF92BF92CF928B
:1013B000DF92EF92FF92CF93DF93EC016881798106
:1013C0008A819B81611571058105910521F464E293
:1013D00079ED8BE597E02DE133EF41E050E00E949D
:1013E000740D49015A019B01AC01A7EAB1E40E94C6
:1013F000930D6B017C01ACEEB4EFA50194010E944A
:10140000A10DDC01CB018C0D9D1DAE1DBF1DB7FFD5
:1014100003C00197A109B04888839983AA83BB833D
:101420009F77DF91CF91FF90EF90DF90CF90BF90AB
:10143000AF909F908F9008950E94D309089586E001
:1014400091E00E94D3090895A0E0B0E080930601E6
:1014500090930701A0930801B093090108950F9399
:101460001F93CF93DF93009731F46115710519F441
:1014700080E090E03AC08B01EC016EE070E081E02A
:1014800090E00E94A10CFC01892B91F380E88383FA
:101490000115110571F01387028781E8838380911C
:1014A000060490910704892B21F4F0930704E0933C
:1014B00006042097C9F0D187C08783818260838327
:1014C0008091080490910904892B71F4F093090428
:1014D000E093080480910A0490910B04892B21F475
:1014E000F0930B04E0930A04CF01DF91CF911F9199
:1014F0000F910895A0E0B0E0E0E8FAE00C94B60D9A
:10150000AE014B5F5F4FFA0161917191AF01809124
:101510000804909109040E94C00AE2E00C94D20DE4
:101520000F931F93CF93DF93E0910804F091090488
:10153000238121FF1BC08C01D0E0C0E0F801819124
:101540008F016091080470910904DB011896ED91F8
:10155000FC911997882331F00995892B79F3DFEFF6
:10156000CFEFECCF8AE00995892B19F08FEF9FEF31
:1015700002C08D2F9C2FDF91CF911F910F91089565
:10158000ABE0B0E0E6ECFAE00C94A60D6C017B0158
:101590008A01FC0117821682838181FFCCC1CE01B2
:1015A00001963C01F6019381F70193FD859193FF2C
:1015B00081917F01882309F4BAC1853239F493FD02
:1015C000859193FF81917F01853229F4B60190E0E6
:1015D0000E94DA0CE7CF912C212C312CFFE1F3157E
:1015E000D8F08B3279F038F4803279F08332A1F47C
:1015F000232D20611DC08D3261F0803369F4232DCD
:10160000216016C0832D8260382EE32DE4603E2ECB
:101610002AC0F32DF8601DC037FC2DC020ED280F27
:101620002A3040F08E32B9F436FC81C1232D20647B
:10163000322E19C036FE06C08AE0989E200D112475
:10164000922E11C0EAE02E9E200D1124222EF32DA1
:10165000F0623F2E08C08C3621F4832D8068382E2E
:1016600002C0883641F4F70193FD859193FF819183
:101670007F018111B3CF982F9F7D9554933028F42B
:101680000C5F1F4F9FE399830DC0833631F0833782
:1016900071F0833509F059C021C0F8018081898338
:1016A0000E5F1F4F88248394912C530113C028018F
:1016B000F2E04F0E511CF801A080B18036FE03C04D
:1016C000692D70E002C06FEF7FEFC5010E94CF0C63
:1016D0004C018201F32DFF773F2E16C0280122E036
:1016E000420E511CF801A080B18036FE03C0692D66
:1016F00070E002C06FEF7FEFC5010E94BD0C4C018E
:10170000F32DF0683F2E820133FC1BC0822D90E048
:1017100088169906B0F4B60180E290E00E94DA0CD7
:101720002A94F4CFF50137FC859137FE81915F0152
:10173000B60190E00E94DA0C21102A9421E0821A6E
:1017400091088114910471F7E8C0843611F089364C
:1017500041F5F80137FE07C0608171818281938174
:101760000C5F1F4F08C060817181072E000C880B31
:10177000990B0E5F1F4FF32DFF763F2E97FF09C089
:1017800090958095709561957F4F8F4F9F4FF06832
:101790003F2E2AE030E0A3010E94160D882E861805
:1017A00045C0853731F4232D2F7EB22E2AE030E05C
:1017B00025C0932D997FB92E8F36C1F018F4883546
:1017C00079F0B5C0803719F0883721F0B0C0E92F23
:1017D000E061BE2EB4FE0DC0FB2DF460BF2E09C02B
:1017E00034FE0AC0292F2660B22E06C028E030E061
:1017F00005C020E130E002C020E132E0F801B7FE90
:1018000007C060817181828193810C5F1F4F06C088
:101810006081718180E090E00E5F1F4FA3010E9404
:10182000160D882E8618FB2DFF773F2E36FE0DC035
:10183000232D2E7FA22E891458F434FE0BC032FCC7
:1018400009C0832D8E7EA82E05C0B82CA32C03C002
:10185000B82C01C0B92CA4FE0FC0FE01E80DF11D8B
:101860008081803321F49A2D997EA92E09C0A2FE91
:1018700006C0B394B39404C08A2D867809F0B3945B
:10188000A3FC11C0A0FE06C0B21488F4280C922C50
:101890009B180EC0B21460F4B60180E290E00E9482
:1018A000DA0CB394F7CFB21418F42B1802C0982CAA
:1018B000212CA4FE10C0B60180E390E00E94DA0C57
:1018C000A2FE17C0A1FC03C088E790E002C088E533
:1018D00090E0B6010CC08A2D867859F0A1FE02C0B6
:1018E0008BE201C080E2A7FC8DE2B60190E00E948D
:1018F000DA0C891438F4B60180E390E00E94DA0C27
:101900009A94F7CF8A94F301E80DF11D8081B60116
:1019100090E00E94DA0C8110F5CF222009F442CE2B
:10192000B60180E290E00E94DA0C2A94F6CFF6012C
:101930008681978102C08FEF9FEF2B96E2E10C9496
:10194000C20D0F931F93CF93DF93869F8001879FD4
:10195000100D969F100D1124C8010E94B208EC01D1
:10196000009729F0A80160E070E00E94C80CCE0149
:10197000DF91CF911F910F910895FC010590615067
:1019800070400110D8F7809590958E0F9F1F089595
:10199000DC0101C06D9341505040E0F70895FC0117
:1019A0006150704001900110D8F7809590958E0F8E
:1019B0009F1F08950F931F93CF93DF93FB01238104
:1019C00021FD03C08FEF9FEF2CC022FF16C0468180
:1019D0005781248135814217530744F4A081B18196
:1019E0009D012F5F3F4F318320838C932681378168
:1019F0002F5F3F4F3783268314C08B01EC01FB011F
:101A00000084F185E02D0995892BE1F6D801169621
:101A10008D919C911797019617969C938E9316978C
:101A2000CE01DF91CF911F910F910895FA01AA275E
:101A3000283051F1203181F1E8946F936E7F6E5F11
:101A40007F4F8F4F9F4FAF4FB1E03ED0B4E03CD0BF
:101A5000670F781F891F9A1FA11D680F791F8A1FA2
:101A6000911DA11D6A0F711D811D911DA11D20D009
:101A700009F468943F912AE0269F11243019305DC3
:101A80003193DEF6CF010895462F4770405D4193B4
:101A9000B3E00FD0C9F7F6CF462F4F70405D4A3301
:101AA00018F0495D31FD4052419302D0A9F7EACFC9
:101AB000B4E0A6959795879577956795BA95C9F7F8
:101AC00000976105710508959B01AC010A2E0694EB
:101AD0005795479537952795BA95C9F7620F731FA4
:101AE000841F951FA01D0895052E97FB1EF40094DA
:101AF0000E948B0D57FD07D00E94DD0D07FC03D01F
:101B00004EF40C948B0D50954095309521953F4F98
:101B10004F4F5F4F089590958095709561957F4FD9
:101B20008F4F9F4F08950E94FF0DA59F900DB49F6A
:101B3000900DA49F800D911D11240895B7FF0C9462
:101B4000930D0E94930D821B930B08952F923F9249
:101B50004F925F926F927F928F929F92AF92BF92BD
:101B6000CF92DF92EF92FF920F931F93CF93DF9369
:101B7000CDB7DEB7CA1BDB0B0FB6F894DEBF0FBEC6
:101B8000CDBF09942A88398848885F846E847D8413
:101B90008C849B84AA84B984C884DF80EE80FD8015
:101BA0000C811B81AA81B981CE0FD11D0FB6F8948B
:101BB000DEBF0FBECDBFED010895A1E21A2EAA1B14
:101BC000BB1BFD010DC0AA1FBB1FEE1FFF1FA217ED
:101BD000B307E407F50720F0A21BB30BE40BF50BEA
:101BE000661F771F881F991F1A9469F76095709573
:101BF000809590959B01AC01BD01CF010895A29FF6
:101C0000B001B39FC001A39F700D811D1124911DD0
:101C1000B29F700D811D1124911D0895F894FFCF7E
:101C200000000C04200001000000786D656D5F6904
:101C30006E697428293A2025640D0A0070776D5F5B
:101C4000696E697428293A202025640D0A006F6C9A
:101C500065645F696E697428293A2025640D0A005D
:101C60007370695F696E697428293A202025640DB4
:101C70000A0063616E5F696E697428293A20202525
:101C8000640D0A00434E46313A2025640A0D004394
:101C90004E46323A2025640A0D00434E46333A2020
:101CA00025640A0D005258204275666665723A2511
:101CB00064202564202564202564207C25647C25FF
:101CC000647C25647C25647C25647C25647C256497
:101CD0007C25647C0D0A00456E64206F66206C6F65
:101CE0006F700D005374617274696E6720535241B6
:101CF0004D20746573742E2E2E0057726974652002
:101D00007068617365206572726F723A20657874CD
:101D10005F72616D5B2534645D203D202530325853
:101D2000202873686F756C642062652025303258F6
:101D3000290A0052657472696576616C2070686169
:101D40007365206572726F723A206578745F726194
:101D50006D5B2534645D203D20253032582028738A
:101D6000686F756C642062652025303258290A003E
:101D70005352414D207465737420636F6D706C65B0
:101D80007465642077697468200A2534642065725C
:101D9000726F727320696E20777269746520706843
:101DA00061736520616E64200A2534642065727257
:101DB0006F727320696E2072657472696576616CEA
:101DC0002070686173650A0A000D0A5374617274A9
:101DD000696E6720636F6E66696775726174696F9B
:101DE0006E2E20507265737320616E79206B657959
:101DF00020746F20636F6E74696E75652E0D0048D8
:101E00006F6C64206A6F79737469636B20746F20E0
:101E100074686520666172206C65667420616E640A
:101E2000207468656E20707265737320616E79200E
:101E30006B65792E0D00486F6C64206A6F7973743E
:101E400069636B20746F207468652066617220720C
:101E50006967687420616E64207468656E207072B2
:101E600065737320616E79206B65792E0D00486F64
:101E70006C64206A6F79737469636B20746F20746B
:101E800068652066617220746F7020616E642074D2
:101E900068656E20707265737320616E79206B6562
:101EA000792E0D00486F6C64206A6F7973746963D2
:101EB0006B20746F207468652066617220626F7495
:101EC000746F6D20616E64207468656E2070726539
:101ED000737320616E79206B65792E0D00436F6EF0
:101EE00066696775726174696F6E20636F6D706C7F
:101EF0006574652E0D004D435032353135206973C0
:101F0000206E6F7420696E20636F6E666967206D46
:101F10006F64652061667465722072657365740D07
:021F20000000BF
:00000001FF
