:100000000C9460030C947D030C947D030C947D038D
:100010000C947D030C947D030C947D030C947D0360
:100020000C947D030C947D030C947D030C947D0350
:100030000C947D030C947D030C947D030C947D0340
:100040000C947D030C947D030C947D030C947D0330
:100050000C947D030C947D030C947D030C947D0320
:100060000C947D030C947D030C947D030C947D0310
:1000700000000000005C00000C000C007C287C28C4
:1000800058DC68002410480028542840000C000068
:10009000007884008478000054385400107C1000EC
:1000A00080400000101010000040000060100C00A4
:1000B00038543800487C40004864580044542C00B0
:1000C0001C107C005C5424003854240064140C0080
:1000D00068542C0048543800004800008048000054
:1000E0001028440028282800442810000454080040
:1000F00038445C00781478007C5428003844280088
:100100007C4438007C5444007C140400384474005F
:100110007C107C00447C440020403C007C106C003F
:100120007C4040007C187C0078103C00384438004B
:100130007C1408003844B8007C146800485424003B
:10014000047C04007C407C003C603C007C307C00F3
:100150006C106C000C700C0064544C00007C44006B
:100160000C106000447C00000804080080808000BF
:1001700000040800304878007C48300030484800CF
:1001800030487C00306850001078140090A8780047
:100190007C08700050744000808074007C106800FF
:1001A000447C4000781078007808700030483000B7
:1001B000F82810003048F80078100800505828003F
:1001C000083C4800384078003840380078207800F3
:1001D0004830480098A0780048685800107884009B
:1001E000007C00008478100008040804000000006F
:1001F0000000005F00000007000700147F147F1458
:10020000242A7F2A1223130864623649552250009B
:1002100005030000001C2241000041221C00082AA6
:100220001C2A0808083E080800503000000808088A
:100230000808006060000020100804023E51494593
:100240003E00427F400042615149462141454B31C9
:100250001814127F1027454545393C4A4949300159
:10026000710905033649494936064949291E0036B0
:100270003600000056360000000814224114141401
:10028000141441221408000201510906324979412F
:100290003E7E1111117E7F494949363E414141223E
:1002A0007F4141221C7F494949417F090901013EA3
:1002B000414151327F0808087F00417F41002040C2
:1002C000413F017F081422417F404040407F0204AB
:1002D000027F7F0408107F3E4141413E7F090909AA
:1002E000063E4151215E7F09192946464949493157
:1002F00001017F01013F4040403F1F2040201F7F00
:100300002018207F631408146303047804036151E8
:1003100049454300007F4141020408102041417FCC
:100320000000040201020440404040400001020479
:100330000020545454787F4844443838444444207E
:10034000384444487F3854545418087E0901020840
:100350001454543C7F0804047800447D400020403D
:10036000443D00007F10284400417F40007C041879
:1003700004787C0804047838444444387C14141409
:1003800008081414187C7C080404084854545420A9
:10039000043F4440203C4040207C1C2040201C3C2A
:1003A0004030403C44281028440C5050503C446499
:1003B000544C44000836410000007F0000004136E4
:1003C000080002010302010000000000000000001C
:1003D000065F5F0600000000070700070700001423
:1003E0007F7F147F7F1400242E6B6B3A120000462F
:1003F0006630180C666200307A4F5D377A48000428
:1004000007030000000000001C3E634100000000E4
:1004100041633E1C000000082A3E1C1C3E2A0808BE
:10042000083E3E0808000000A0E060000000000850
:100430000808080808000000006060000000006074
:1004400030180C060301003E7F594D7F3E000042EC
:10045000427F7F40400000627359496F660000226E
:100460006349497F360000181C16137F7F10002750
:100470006745457D3900003C7E4B497930000003DB
:100480006371190F070000367F49497F3600000667
:100490004F49693F1E000000006C6C000000000026
:1004A000A0EC6C00000000081C3663410000001442
:1004B00014141414140000004163361C08000002D8
:1004C0000351590F0600003E7F415D5D1F1E007CF9
:1004D0007E13137E7C0000417F7F49497F36001CDC
:1004E0003E634141632200417F7F41637F1C0041A5
:1004F0007F7F495D416300417F7F491D0103001CEF
:100500003E6341517372007F7F08087F7F000000C7
:10051000417F7F41000000307040417F3F0100413A
:100520007F7F081C776300417F7F41406070007FC0
:100530007F060C067F7F007F7F060C187F7F001CE4
:100540003E6341633E1C00417F7F49090F06001E48
:100550003F21717F5E0000417F7F19396F46002681
:10056000674D597B32000003417F7F410300007FCC
:100570007F40407F7F00001F3F60603F1F00007F83
:100580007F3018307F7F0063771C081C776300077B
:100590004F78784F0700006773594D47637100002B
:1005A0007F7F41410000000103060C18306000000D
:1005B00041417F7F000000080C0603060C08008004
:1005C000808080808080800000030704000000207D
:1005D0007454543C784000413F7F44447C38003898
:1005E0007C44446C280000307848493F7F40003804
:1005F0007C54545C180000487E7F49030200009838
:10060000BCA4A4F87C0400417F7F08047C7800002F
:10061000447D7D4000000040C484FD7D0000004119
:100620007F7F10386C440000417F7F400000007CD9
:100630007C0C180C7C78007C7C04047C78000038EE
:100640007C44447C38000084FCF8A4243C18001846
:100650003C24A4F8FC8400447C78441C1800004826
:100660005C54547424000000043E7F442400003C89
:100670007C40403C7C40001C3C60603C1C00003CDA
:100680007C6030607C3C00446C3810386C44009CCA
:10069000BCA0A0FC7C00004C64745C4C64000008AE
:1006A000083E7741410000000000777700000041DC
:1006B00041773E0808000002030103020301000025
:1006C00011241FBECFEFD4E0DEBFCDBF14E0A0E009
:1006D000B1E0EAE3FDE102C005900D92AC37B1074D
:1006E000D9F724E0ACE7B4E001C01D92A638B20708
:1006F000E1F70E9490030C949B0E0C94000090BDB7
:1007000089B988E18AB98EE880BD80E008955D9B53
:10071000FECF8CB980E008955F9BFECF8CB1089529
:100720008FE190E00E947F031F928F938AE091E017
:100730009F938F930E94070B0E94A2041F928F9396
:100740008CE191E09F938F930E94070B0E943505E7
:100750001F928F938EE291E09F938F930E94070BDD
:100760000E9473061F928F9380E491E09F938F9372
:100770000E94070B0E94F7071F928F9382E591E07A
:100780009F938F930E94070B0E941B081F928F93C9
:1007900084E691E09F938F930E94070B6CE873E0CF
:1007A00087E893E00E94BC0A8AE20E940D081F922B
:1007B0008F930F2EF6E7AF2EF1E0BF2EF02DBF92F4
:1007C000AF920E94070B89E20E940D081F928F933F
:1007D00001E811E01F930F930E94070B8DB79EB79E
:1007E00080960FB6F8949EBF0FBE8DBF88E20E9420
:1007F0000D081F928F93CCE8D1E0DF93CF930E9436
:10080000070B86E090E00E943F096C0184E090E0D5
:100810000E943F097C01FC0183811F928F9382819A
:100820001F928F9381811F928F9380811F928F934C
:1008300087E991E09F938F930E94070B0E94B70670
:100840000E943F080E947C080E948E080E94940823
:100850008AE20E940D081F928F93BF92AF920E946E
:10086000070B89E20E940D081F928F931F930F932D
:100870000E94070B88E20E940D081F928F93DF935E
:10088000CF930E94070B0E94B8088CE090E00E9472
:100890003F09EC0180E3888319821A828BE78C83FD
:1008A0008D838E838F83888789878A878B878CE067
:1008B00090E00E943F09FC0180E680831982128249
:1008C000148215821682178210861186128613866C
:1008D000EDB7FEB77A960FB6F894FEBF0FBEEDBF28
:1008E0000DEB11E0AE01B701C6010E9446067B8503
:1008F0006A85598548853F812E819C818D811F9213
:100900007F931F926F931F925F931F924F931F923B
:100910003F931F922F931F929F931F928F931F932A
:100920000F930E94070B8FEF9FE50197F1F700C02F
:100930000000EDB7FEB772960FB6F894FEBF0FBE7B
:10094000EDBFD0CF85B7806885BF80B7886080BF96
:1009500080E00895FB01F05F80830895905FFC01C3
:1009600080810895CF92DF92EF92FF920F931F93B1
:10097000CF93DF938AE392E00E941D0B0E94AC0AA2
:100980007C010E94B10AC12CD12C00E010E0C0E52E
:10099000D2E00E94AC0AF601F85E8083208128171D
:1009A000A9F099279F938F931F922F93DF92CF9255
:1009B000DF93CF930E94070B0F5F1F4F8DB79EB73A
:1009C00008960FB6F8949EBF0FBE8DBF9FEFC91A51
:1009D000D90AC11488E0D806E1F6C7010E94B10A1D
:1009E000C0E0D0E0E12CF12C0F2EF9E8CF2EF2E0A0
:1009F000DF2EF02D0E94AC0AFE01F85E2081281740
:100A0000B1F099279F938F931F922F93DF93CF93EA
:100A1000DF92CF920E94070B9FEFE91AF90A8DB778
:100A20009EB708960FB6F8949EBF0FBE8DBF219655
:100A3000C11598E0D907F1F6FF92EF921F930F933B
:100A400086EC92E09F938F930E94070B0F900F907C
:100A50000F900F900F900F90DF91CF911F910F91FA
:100A6000FF90EF90DF90CF9008958D9A8C98B89872
:100A7000B9988FB582608FBD8FB58E7F8FBD8FB5D2
:100A800080688FBD8FB58F7B8FBD8EB580618EBD29
:100A90008EB588608EBD8EB581608EBD8EB58D7F22
:100AA0008EBD8EB58B7F8EBD83E090E095BD84BDFD
:100AB00081E090E09BBD8ABD80E00895CF93DF93F5
:100AC000DC0110920014849BFECFFD019D012C5F80
:100AD0003F4FC0E0D4E198819193E217F307D9F733
:100AE00086B3817014968C93149786B38270159692
:100AF0008C93DF91CF910895EF92FF920F931F9304
:100B0000CF93DF937C01EB018FE193E00E941D0BFB
:100B100080E090E00E948C032FEF8FE797E0215058
:100B200080409040E1F700C0000085E593E00E941E
:100B30001D0B80E090E00E948C03CE010E945E05B8
:100B4000EFEFFFE727E0E150F0402040E1F700C081
:100B500000008981F701808389811F928F930CE8BF
:100B600013E01F930F930E94070BFFEF2FE787E01F
:100B7000F15020408040E1F700C0000080E993E0A0
:100B80000E941D0B80E090E00E948C03CE010E9429
:100B90005E059FEFEFE7F7E09150E040F040E1F7AE
:100BA00000C000008981F701818389811F928F93A2
:100BB0001F930F930E94070BFFEF2FE787E0F15081
:100BC00020408040E1F700C0000088EC93E00E94E4
:100BD0001D0B80E090E00E948C03CE010E945E0518
:100BE0009FEFEFE7F7E09150E040F040E1F700C001
:100BF00000008881F701828388811F928F931F9361
:100C00000F930E94070BFFEF2FE787E0F150204082
:100C10008040E1F700C0000081E094E00E941D0BDD
:100C200080E090E00E948C03CE010E945E059FEF61
:100C3000EFE7F7E09150E040F040E1F700C000003E
:100C40008881F701838388811F928F931F930F936D
:100C50000E94070BFFEF2FE787E0F1502040804014
:100C6000E1F700C0000087E394E00E941D0BEDB7A0
:100C7000FEB770960FB6F894FEBF0FBEEDBFDF91C2
:100C8000CF911F910F91FF90EF900895EF92FF92F7
:100C90000F931F93CF93DF938C017B01EA010E9496
:100CA0005E05F80180818C8381818D8382818E83B2
:100CB00083818F838481888785818987F7018281F9
:100CC0008A8783818B87CE010E94C308DF91CF91F1
:100CD0001F910F91FF90EF90089580930010089559
:100CE000809300120895E0E0F0E18EEA808381EACB
:100CF00080838AED808382E1808388EC808388EA28
:100D000080838FE3808385ED808380E8808381E822
:100D1000808380E5808389ED808381E2808380E227
:100D2000808382E080838BED808380E380838DEA03
:100D30008083108284EA808386EA80838FEA8083BE
:100D400080E00895E0E0F0E1808382958F70805F1D
:100D5000808308958055809300100895CF93C62F07
:100D60000E94A206C055C0930010CF91089580E064
:100D70000E94A20690EBA0E0B0E1E0E0F2E19C93DB
:100D800080E010828F5F8038E1F79F5F983BB9F772
:100D9000089580558093001080E0E0E0F2E1108239
:100DA0008F5F8038E1F70895082E000C990B80972B
:100DB000880F991F880F991F880F991FFC01E9530D
:100DC000FC4F81539C4FA0E0B2E124912C933196CB
:100DD000E817F907D1F708951F93CF93DF93EC013C
:100DE00010E007C0FE01E80FF91F80810E94D406C1
:100DF0001F5F812F90E0FE0101900020E9F73197FD
:100E0000EC1BFD0B8E179F0768F3DF91CF911F91AD
:100E10000895082E000C990B8097FC01EE0FFF1F20
:100E2000EE0FFF1FE80FF91FE451FE4F85E0A0E031
:100E3000B2E194919C93815031968111FACF08953B
:100E40001F93CF93DF93EC0110E007C0FE01E80F82
:100E5000F91F80810E9409071F5F812F90E0FE012A
:100E600001900020E9F73197EC1BFD0B8E179F07CF
:100E700068F3DF91CF911F91089524E08202C001B1
:100E80001124FC01E051F04080E0A0E0B2E1949137
:100E90009C938F5F31968430D1F708951F93CF9341
:100EA000DF93EC0110E007C0FE01E80FF91F80811D
:100EB0000E943D071F5F812F90E0FE0101900020FE
:100EC000E9F73197EC1BFD0B8E179F0768F3DF9155
:100ED000CF911F9108950F931F93CF93DF936623B4
:100EE00089F0D62F082F192FC0E06C2F80E00E94C8
:100EF000AE06F801819191918F010E94EC06CF5FBF
:100F0000DC13F3CFDF91CF911F910F910895EF92F2
:100F1000FF920F931F93CF937C018901662309F4FD
:100F200058C0FC0190E0C0E0A191B1912C912E330A
:100F300009F4C92F9F5F6913F7CFF8018081853BC2
:100F4000D0F0CC23B9F1EC2FF0E0EE0FFF1FEE0D47
:100F5000FF1D0190F081E02D80E28083C150EC2FD5
:100F6000F0E0EE0FFF1FEE0DFF1D0190F081E02D70
:100F70008EE380831FC08238E8F4C73011F41AC0B2
:100F8000C0E0EC2FF0E0EE0FFF1FEE0DFF1D019013
:100F9000F081E02D80E28083CF5FEC2FF0E0EE0F58
:100FA000FF1FEE0DFF1D0190F081E02D8EE3808389
:100FB00001C0C0E0C7010E946B0780E090EF01977D
:100FC000F1F7F8018481813011F48C2F0AC08FEF82
:100FD00008C0F9018081853B60F7823888F2C0E063
:100FE000E9CFCF911F910F91FF90EF900895BD9A97
:100FF000BF9A6C9A689A6D9880E008958FB9779B34
:10100000FECF08958FEF0E94FE078FB10895C49818
:1010100080EC0E94FE07C49A0895CF93C82FC4980D
:1010200083E00E94FE078C2F0E94FE070E940208A8
:10103000C49ACF910895BC9A6E9A0E9407088EE0D8
:101040000E940D08807E803831F080E594E00E9497
:101050001D0B81E0089580E00895CF93DF93D82F92
:10106000C62FC49882E00E94FE078D2F0E94FE07C3
:101070008C2F0E94FE07C49ADF91CF91089563E000
:101080008AE20E942D0869EA89E20E942D0866E83A
:1010900088E20E942D080895660F8068862B440F11
:1010A000440F842B0E94FE070895CF93C49880EAD2
:1010B0000E94FE070E940208C82F8FEF0E94FE07C1
:1010C000C49A8C2FCF9108951F93CF93DF93182F3D
:1010D000D62FC42FC49885E00E94FE07812F0E945E
:1010E000FE078D2F0E94FE078C2F0E94FE07C49AD8
:1010F000DF91CF911F91089543E063E080E30E9468
:10110000640860E081E30E942D0860E082E30E94B1
:101110002D0868E085E30E942D08089540E660E60A
:1011200080E60E94640808956FEF80E00E942D0819
:1011300060EE81E00E942D086FEF84E00E942D0890
:1011400060EE85E00E942D086FEF80E20E942D087E
:1011500060EE81E20E942D08089540E460EE8FE386
:101160000E94640840E460EE8FE60E9464080895DF
:1011700040E060EE8FE30E94640840E060EE8FE69E
:101180000E9464080895CF93DF93EC010E947C08CD
:101190006C8188818A5F0E942D086D818881895FBA
:1011A0000E942D086E818881885F0E942D086F81C2
:1011B0008881875F0E942D0868858881865F0E94EC
:1011C0002D0869858881855F0E942D086A85888140
:1011D000845F0E942D086B858881835F0E942D08A3
:1011E00048E068E080E30E94640881E80E94FE070E
:1011F000DF91CF910895CF93DF93EC010E948E0889
:1012000088818F5F0E940D08898388818E5F0E948C
:101210000D088A8388818B5F0E940D088B838881EB
:101220008A5F0E940D088C838881895F0E940D0867
:101230008D838881885F0E940D088E838881875FF7
:101240000E940D088F838881865F0E940D08888721
:101250008881855F0E940D0889878881845F0E944C
:101260000D088A878881835F0E940D088B8740E084
:1012700061E08CE20E946408DF91CF9108950F93A2
:101280001F93CF93DF938230910510F482E090E0BA
:10129000E0917E04F0917F0420E030E0A0E0B0E037
:1012A000309719F140815181028113814817590704
:1012B000C8F08417950769F4109731F012960C93D3
:1012C000129713961C9327C000937E0410937F04FB
:1012D00022C02115310519F04217530718F49A015D
:1012E000BD01EF01DF01F801DBCF21153105F9F078
:1012F000281B390B2430310580F48A819B816115CC
:10130000710521F0FB019383828304C090937F04D5
:1013100080937E04FE01329644C0FE01E20FF31F6B
:101320008193919322503109398328833AC02091C7
:101330007C0430917D04232B41F4209102013091F3
:10134000030130937D0420937C04209100013091AF
:1013500001012115310541F42DB73EB7409104013B
:1013600050910501241B350BE0917C04F0917D0424
:10137000E217F307A0F42E1B3F0B2817390778F06C
:10138000AC014E5F5F4F2417350748F04E0F5F1FCB
:1013900050937D0440937C048193919302C0E0E0DC
:1013A000F0E0CF01DF91CF911F910F910895CF937E
:1013B000DF93009709F481C0FC01329713821282F7
:1013C000A0917E04B0917F04109781F42081318137
:1013D000820F931F20917C0430917D0428173907D8
:1013E00051F5F0937D04E0937C0467C0ED0120E0AB
:1013F00030E0CE17DF0740F44A815B819E01411542
:101400005105F1F0EA01F5CFD383C28340815181C8
:10141000840F951FC817D90759F488819981840FC3
:10142000951F0296918380838A819B819383828317
:101430002115310529F4F0937F04E0937E043DC02B
:10144000E901FB83EA8349915991C40FD51FEC1739
:10145000FD0761F480819181840F951F0296E90157
:1014600099838883828193819B838A83E0E0F0E083
:1014700012968D919C911397009719F0FD01DC0154
:10148000F7CF8D919C9111979D012E5F3F4F820F59
:10149000931F20917C0430917D042817390769F44B
:1014A000309729F410927F0410927E0402C01382B8
:1014B0001282B0937D04A0937C04DF91CF910895B4
:1014C0008F929F92AF92BF92CF92DF92EF92FF9254
:1014D000CF93DF93EC01688179818A819B816115CB
:1014E00071058105910521F464E279ED8BE597E0C2
:1014F0002DE133EF41E050E00E94010E49015A0115
:101500009B01AC01A7EAB1E40E94200E6B017C01B3
:10151000ACEEB4EFA50194010E942E0EDC01CB01CC
:101520008C0D9D1DAE1DBF1DB7FF03C00197A10906
:10153000B04888839983AA83BB839F77DF91CF913B
:10154000FF90EF90DF90CF90BF90AF909F908F90E3
:1015500008950E94600A089586E091E00E94600A62
:101560000895A0E0B0E08093060190930701A09356
:101570000801B093090108950F931F93CF93DF9350
:10158000009731F46115710519F480E090E03AC0DC
:101590008B01EC016EE070E081E090E00E942E0D86
:1015A000FC01892B91F380E883830115110571F00B
:1015B0001387028781E8838380918004909181045E
:1015C000892B21F4F0938104E09380042097C9F0E3
:1015D000D187C087838182608383809182049091C8
:1015E0008304892B71F4F0938304E0938204809147
:1015F000840490918504892B21F4F0938504E09371
:101600008404CF01DF91CF911F910F910895A0E045
:10161000B0E0EDE0FBE00C94430EAE014B5F5F4F9A
:10162000FA0161917191AF018091820490918304DC
:101630000E944D0BE2E00C945F0E0F931F93CF932B
:10164000DF93E0918204F0918304238121FF1BC08A
:101650008C01D0E0C0E0F80181918F01609182049B
:1016600070918304DB011896ED91FC911997882302
:1016700031F00995892B79F3DFEFCFEFECCF8AE0DA
:101680000995892B19F08FEF9FEF02C08D2F9C2FAA
:10169000DF91CF911F910F910895ABE0B0E0E3E5AA
:1016A000FBE00C94330E6C017B018A01FC01178274
:1016B0001682838181FFCCC1CE0101963C01F601E7
:1016C0009381F70193FD859193FF81917F01882399
:1016D00009F4BAC1853239F493FD859193FF819164
:1016E0007F01853229F4B60190E00E94670DE7CFB3
:1016F000912C212C312CFFE1F315D8F08B3279F0AD
:1017000038F4803279F08332A1F4232D20611DC09A
:101710008D3261F0803369F4232D216016C0832D52
:101720008260382EE32DE4603E2E2AC0F32DF8604F
:101730001DC037FC2DC020ED280F2A3040F08E321E
:10174000B9F436FC81C1232D2064322E19C036FE37
:1017500006C08AE0989E200D1124922E11C0EAE066
:101760002E9E200D1124222EF32DF0623F2E08C054
:101770008C3621F4832D8068382E02C0883641F4DF
:10178000F70193FD859193FF81917F018111B3CF83
:10179000982F9F7D9554933028F40C5F1F4F9FE343
:1017A00099830DC0833631F0833771F0833509F0AA
:1017B00059C021C0F801808189830E5F1F4F8824A2
:1017C0008394912C530113C02801F2E04F0E511C59
:1017D000F801A080B18036FE03C0692D70E002C020
:1017E0006FEF7FEFC5010E945C0D4C018201F32D6C
:1017F000FF773F2E16C0280122E0420E511CF8014F
:10180000A080B18036FE03C0692D70E002C06FEF8A
:101810007FEFC5010E944A0D4C01F32DF0683F2E69
:10182000820133FC1BC0822D90E088169906B0F42B
:10183000B60180E290E00E94670D2A94F4CFF50192
:1018400037FC859137FE81915F01B60190E00E94DF
:10185000670D21102A9421E0821A910881149104C5
:1018600071F7E8C0843611F0893641F5F80137FE8A
:1018700007C060817181828193810C5F1F4F08C016
:1018800060817181072E000C880B990B0E5F1F4F32
:10189000F32DFF763F2E97FF09C0909580957095A8
:1018A00061957F4F8F4F9F4FF0683F2E2AE030E0C9
:1018B000A3010E94A30D882E861845C0853731F4F8
:1018C000232D2F7EB22E2AE030E025C0932D997F64
:1018D000B92E8F36C1F018F4883579F0B5C080374D
:1018E00019F0883721F0B0C0E92FE061BE2EB4FEB8
:1018F0000DC0FB2DF460BF2E09C034FE0AC0292F95
:101900002660B22E06C028E030E005C020E130E0BD
:1019100002C020E132E0F801B7FE07C060817181AA
:10192000828193810C5F1F4F06C06081718180E0CE
:1019300090E00E5F1F4FA3010E94A30D882E861812
:10194000FB2DFF773F2E36FE0DC0232D2E7FA22EBE
:10195000891458F434FE0BC032FC09C0832D8E7EEE
:10196000A82E05C0B82CA32C03C0B82C01C0B92CDC
:10197000A4FE0FC0FE01E80DF11D8081803321F42B
:101980009A2D997EA92E09C0A2FE06C0B394B394E5
:1019900004C08A2D867809F0B394A3FC11C0A0FE80
:1019A00006C0B21488F4280C922C9B180EC0B214F6
:1019B00060F4B60180E290E00E94670DB394F7CF27
:1019C000B21418F42B1802C0982C212CA4FE10C0BD
:1019D000B60180E390E00E94670DA2FE17C0A1FC53
:1019E00003C088E790E002C088E590E0B6010CC033
:1019F0008A2D867859F0A1FE02C08BE201C080E2F8
:101A0000A7FC8DE2B60190E00E94670D891438F4BE
:101A1000B60180E390E00E94670D9A94F7CF8A9414
:101A2000F301E80DF11D8081B60190E00E94670D81
:101A30008110F5CF222009F442CEB60180E290E079
:101A40000E94670D2A94F6CFF6018681978102C025
:101A50008FEF9FEF2B96E2E10C944F0E0F931F93A5
:101A6000CF93DF93869F8001879F100D969F100D67
:101A70001124C8010E943F09EC01009729F0A80138
:101A800060E070E00E94550DCE01DF91CF911F9173
:101A90000F910895FC010590615070400110D8F736
:101AA000809590958E0F9F1F0895DC0101C06D9366
:101AB00041505040E0F70895FC01615070400190A2
:101AC0000110D8F7809590958E0F9F1F08950F9362
:101AD0001F93CF93DF93FB01238121FD03C08FEF81
:101AE0009FEF2CC022FF16C046815781248135818B
:101AF0004217530744F4A081B1819D012F5F3F4FEE
:101B0000318320838C93268137812F5F3F4F37832A
:101B1000268314C08B01EC01FB010084F185E02DCC
:101B20000995892BE1F6D80116968D919C9117970E
:101B3000019617969C938E931697CE01DF91CF91C5
:101B40001F910F910895FA01AA27283051F12031F1
:101B500081F1E8946F936E7F6E5F7F4F8F4F9F4F41
:101B6000AF4FB1E03ED0B4E03CD0670F781F891F83
:101B70009A1FA11D680F791F8A1F911DA11D6A0F51
:101B8000711D811D911DA11D20D009F468943F9104
:101B90002AE0269F11243019305D3193DEF6CF0103
:101BA0000895462F4770405D4193B3E00FD0C9F7C9
:101BB000F6CF462F4F70405D4A3318F0495D31FD36
:101BC0004052419302D0A9F7EACFB4E0A695979589
:101BD000879577956795BA95C9F70097610571055F
:101BE00008959B01AC010A2E0694579547953795A9
:101BF0002795BA95C9F7620F731F841F951FA01D03
:101C00000895052E97FB1EF400940E94180E57FDB0
:101C100007D00E946A0E07FC03D04EF40C94180EF5
:101C200050954095309521953F4F4F4F5F4F089508
:101C300090958095709561957F4F8F4F9F4F089538
:101C40000E948C0EA59F900DB49F900DA49F800DB7
:101C5000911D11240895B7FF0C94200E0E94200EB0
:101C6000821B930B08952F923F924F925F926F9237
:101C70007F928F929F92AF92BF92CF92DF92EF921C
:101C8000FF920F931F93CF93DF93CDB7DEB7CA1B9D
:101C9000DB0B0FB6F894DEBF0FBECDBF09942A88C8
:101CA000398848885F846E847D848C849B84AA8470
:101CB000B984C884DF80EE80FD800C811B81AA81FD
:101CC000B981CE0FD11D0FB6F894DEBF0FBECDBFC8
:101CD000ED010895A1E21A2EAA1BBB1BFD010DC048
:101CE000AA1FBB1FEE1FFF1FA217B307E407F507CC
:101CF00020F0A21BB30BE40BF50B661F771F881FA8
:101D0000991F1A9469F760957095809590959B013D
:101D1000AC01BD01CF010895A29FB001B39FC001E6
:101D2000A39F700D811D1124911DB29F700D811D07
:0A1D30001124911D0895F894FFCFCF
:101D3A0000008604200001000000756172745F696A
:101D4A006E697428293A2025640D0A00786D656D3C
:101D5A005F696E697428293A2025640D0A00707734
:101D6A006D5F696E697428293A202025640D0A007E
:101D7A006F6C65645F696E697428293A2025640D61
:101D8A000A007370695F696E697428293A202025F0
:101D9A00640D0A0063616E5F696E697428293A20CE
:101DAA002025640D0A00434E46313A2025640A0D67
:101DBA0000434E46323A2025640A0D00434E46330C
:101DCA003A2025640A0D00434F4E4649470D0A2022
:101DDA00303A2025642C20313A2025642C20323ACE
:101DEA002025642C20333A2025640D0A004A6F7995
:101DFA00737469636B20583A2025642C204A6F79E2
:101E0A00737469636B20593A2025642C20536C69DA
:101E1A00646572204C6566743A2025642C20536CE4
:101E2A00696465722052696768743A2025642C20B7
:101E3A00427574746F6E204C6566743A2025642C62
:101E4A0020427574746F6E2052696768743A20254F
:101E5A00642C20795F6D696E3A2025642C20795FA5
:101E6A006D61783A2025640D0A00537461727469B1
:101E7A006E67205352414D20746573742E2E2E00C6
:101E8A005772697465207068617365206572726F34
:101E9A00723A206578745F72616D5B2534645D20E7
:101EAA003D2025303258202873686F756C64206293
:101EBA00652025303258290A0052657472696576A0
:101ECA00616C207068617365206572726F723A2066
:101EDA006578745F72616D5B2534645D203D2025F1
:101EEA00303258202873686F756C6420626520252B
:101EFA00303258290A005352414D207465737420B8
:101F0A00636F6D706C657465642077697468200A04
:101F1A00253464206572726F727320696E2077723D
:101F2A0069746520706861736520616E64200A2592
:101F3A003464206572726F727320696E20726574E0
:101F4A0072696576616C2070686173650A0A000DB2
:101F5A000A5374617274696E6720636F6E6669678B
:101F6A0075726174696F6E2E205072657373206189
:101F7A006E79206B657920746F20636F6E74696E59
:101F8A0075652E0D00486F6C64206A6F79737469E9
:101F9A00636B20746F2074686520666172206C65BB
:101FAA00667420616E64207468656E207072657351
:101FBA007320616E79206B65792E0D0025642000EF
:101FCA00486F6C64206A6F79737469636B20746FED
:101FDA00207468652066617220726967687420617E
:101FEA006E64207468656E20707265737320616E0A
:101FFA0079206B65792E0D00486F6C64206A6F79C1
:10200A00737469636B20746F2074686520666172EB
:10201A0020626F74746F6D20616E64207468656EDF
:10202A0020707265737320616E79206B65792E0D4D
:10203A0000486F6C64206A6F79737469636B2074EB
:10204A006F207468652066617220746F7020616EFB
:10205A0064207468656E20707265737320616E798E
:10206A00206B65792E0D00436F6E66696775726124
:10207A0074696F6E20636F6D706C6574652E0D00E8
:10208A004D435032353135206973206E6F742069A3
:10209A006E20636F6E666967206D6F646520616686
:0C20AA007465722072657365740D00008F
:00000001FF
