:100000000C9438000C944D000C944D000C944D0051
:100010000C944D000C944D000C944D000C944D002C
:100020000C944D000C944D000C944D000C944D001C
:100030000C944D000C944D000C944D000C944D000C
:100040000C944D000C944D000C944D000C944D00FC
:100050000C944D000C944D000C944D000C944D00EC
:100060000C944D000C944D000C944D000C944D00DC
:1000700011241FBECFEFD4E0DEBFCDBF11E0A0E062
:10008000B1E0EEEDF0E002C005900D92A230B107B4
:10009000D9F70E944F000C946D000C9400008091E1
:1000A0000001909101010E94620081E60E946900B6
:1000B0002FE382E49FE0215080409040E1F700C0B0
:1000C0000000F3CF90BD89B988E18AB98EE880BD80
:0E00D00008955D9BFECF8CB90895F894FFCF84
:0200DE0003001D
:00000001FF
